:020000040800F2
:10000000C80600209D010008CD0F0008F907000870
:10001000630F00083B050008891E0008000000006F
:10002000000000000000000000000000951500081E
:100030007D06000800000000491000083117000884
:10004000B7010008B7010008B7010008B7010008B0
:10005000B7010008B7010008B7010008B7010008A0
:10006000B7010008B7010008B7010008B701000890
:10007000B7010008B7010008B7010008B701000880
:10008000B7010008B7010008B7010008B701000870
:10009000B7010008B7010008B7010008B701000860
:1000A000B7010008B7010008B7010008B701000850
:1000B000B7010008B7010008B7010008B701000840
:1000C000B7010008B7010008B7010008B701000830
:1000D000B70100089D170008B11900081D1A000893
:1000E000B7010008B7010008B7010008B701000810
:1000F000B7010008B7010008B7010008B701000800
:10010000B7010008B7010008B7010008B7010008EF
:10011000B7010008B7010008B7010008B7010008DF
:10012000B7010008B7010008B7010008B7010008CF
:10013000B7010008B7010008B7010008B7010008BF
:10014000B7010008B7010008B7010008B7010008AF
:10015000B7010008B7010008B7010008B70100089F
:10016000B7010008B7010008B7010008B70100088F
:10017000B7010008B7010008B7010008B70100087F
:10018000B7010008B7010008DFF80CD000F0B4F99F
:100190000048004769240008C80600200648804738
:1001A00006480047FEE7FEE7FEE7FEE7FEE7FEE75C
:1001B000FEE7FEE7FEE7FEE73517000889010008C5
:1001C00040EA01039B0703D009E008C9121F08C0D9
:1001D000042AFAD203E011F8013B00F8013B521E59
:1001E000F9D27047D2B201E000F8012B491EFBD2D0
:1001F00070470022F6E710B513460A460446194632
:10020000FFF7F0FF204610BD421E12F8013F002B01
:10021000FBD111F8013B02F8013B002BF9D17047EB
:1002200030B505462A460B4612F8010B13F8014B70
:1002300008B1A042F8D01CB1002802D06D1CF1E733
:10024000284630BD421C10F8011B0029FBD1801A42
:10025000704710B5002200E0521C835C8C5CA34206
:1002600001D1002BF8D1D8B2E1B2401A10BD000084
:1002700070B50F4D00B92868002412E00A4602E06C
:100280009E4203D0521C1378002BF9D1DAB22243DC
:1002900005D02BB124B1002100F8011B04E0044675
:1002A000401C0678002EE9D12860204670BD000071
:1002B0002C0000202DE9F04D81EA030404F0004BEE
:1002C00021F0004514464FF0000A23F0004150EAA7
:1002D000050220D054EA01021DD0C5F30A57024698
:1002E000C5F31303C1F31300C1F30A5640F480159C
:1002F00043F48013A7EB0608101BD64608F2FD381E
:1003000073EB050002D308F1010801E092185B418C
:10031000B8F1000F03DA00200146BDE8F08D00209F
:100320004FF48011064684460EE0171B73EB050759
:1003300005D3121B63EB050306434CEA010C490885
:100340004FEA300092185B4150EA0107EDD152EAC2
:10035000030012D082EA040083EA0501084305D0B5
:10036000101BAB4106D20122002306E000224FF011
:10037000004302E06FF0010253101AEB06004CEB51
:10038000085110EB0A0041EB0B01BDE8F04D00F005
:1003900056B80EB5C10F80EAE0700844CA070021C4
:1003A00040F233438DE80E000A460B4600F056F843
:1003B00003B000BD70B5C1F30A5201F0004500243E
:1003C000C1F3130140F2FF3341F480119A4201DA84
:1003D000002070BD40F233439A42A2F2334203DC64
:1003E000524200F01CF800E090402C43F1D0404213
:1003F00070BD30B50B46014600202022012409E0E3
:1004000021FA02F59D4205D303FA02F5491B04FACD
:1004100002F52844151EA2F10102F1DC30BD202AAC
:1004200004DB203A21FA02F00021704721FA02F39E
:10043000D040C2F12002914008431946704710B5E0
:10044000141E73F1000408DA401C41F100019218F7
:100450005B411A4301D120F0010010BD2DE9F04DA0
:1004600092469B4611B1B1FA81F202E0B0FA80F2F5
:100470002032904600F052F804460F4640EA0A0047
:1004800041EA0B0153465A46084313D0114653EA3A
:10049000010019D0C8F140025046FFF7C0FF0546E1
:1004A0000E4650465946424600F038F8084305D0FB
:1004B000012004E020463946BDE8F08D00200543C8
:1004C00046EAE0762C4337430A986305E40AA0EB3A
:1004D00008000022FD0A44EA47540A3002D50020F1
:1004E0000146E9E7010510196941DDE908450019F0
:1004F0006941BDE8F04DA2E7064C074D06E0E06813
:1005000040F0010394E8070098471034AC42F6D35A
:10051000FFF73EFE80260008A0260008202A04DB04
:10052000203A00FA02F1002070479140C2F1200306
:1005300020FA03F319439040704700BFFEE770B5FF
:1005400004460A46002300264FF6FF7100250AB92B
:10055000002070BD002310E0E05C4140002609E06F
:1005600001F0010020B14AF2010080EA610100E0DF
:100570004910761C072EF3DD5B1C9342ECD3080672
:10058000050C45EA21252846E3E70000F0B5ADF566
:10059000137D05460E4617464FF4FA7116A8FFF76D
:1005A00028FE00240120224908704D208DF800000B
:1005B00051208DF8010054208DF8020043208DF861
:1005C00003000020019004208DF8080019A003907A
:1005D000ADF8187001208DF81A0000208DF81B006E
:1005E000109513966A464FF4FA7116A800F080FA37
:1005F00004461CB911A001F05FFD03E0214616A8D6
:1006000001F000FB00240AE00A2001F0C3FE641C94
:10061000B4F52F7F03D111A001F04EFD03E0164881
:1006200000780028F0D000BF0DF5137DF0BD00006C
:100630000A00002053544D33320000004D515454F1
:1006400020436F6E6E656374206D657373616765BB
:10065000206572726F72200D0A000000636F6E6E6B
:10066000656374206D717474207365727665722091
:100670006572726F720D0A00240000207047F0B599
:100680000A4600210023002400BF3DE0012505FAB1
:1006900001F3156805EA03049C4234D105684F0054
:1006A0000326BE40B543056015794E00B540066887
:1006B000354305601579012D02D01579022D16D12B
:1006C00085684F000326BE40B543856055794E00CE
:1006D000B540866835438560456801268E40B54340
:1006E0004560456896798E40B6B235434560C56829
:1006F0004F000326BE40B543C560D5794E00B540D6
:10070000C6683543C560491C1029BFD3F0BDF0B59C
:10071000002300244D07ED0E02FA05F3CE1000F180
:10072000200555F826504E07F70E0F26BE40B5435C
:10073000CF1000F1200646F82750CE1000F120051A
:1007400055F8265045EA0304CE1000F1200545F87F
:100750002640F0BD018370472DE9F0472DED048B55
:1007600004460D4616460027BA4607212046FFF7E5
:10077000E6FE0746E079B0EB172F03D1207AF9B2F5
:10078000884204D00020BDEC048BBDE8F08794F8CB
:10079000008094F8019094F802A02179E27801EBAE
:1007A000022108B2FFF7F5FD41EC190B9FED100B8C
:1007B00053EC102BFFF77EFD41EC180BFFF7FAFD11
:1007C00000B23080A179627901EB0220FFF7E1FDF0
:1007D00041EC190B9FED060B53EC102BFFF76AFD54
:1007E00041EC180BFFF7E6FD00B228800120CAE7B4
:1007F000000000000000244000BFFEE71CB50121FE
:10080000202000F0E3FC4FF4C060009001208DF840
:10081000040000208DF8060003208DF8050001205B
:100820008DF8070069460448FFF729FF4FF4C061BF
:100830000148FFF78FFF1CBD00140240F0B599B0CE
:1008400064216846FFF7D5FC00240025002621A17D
:100850002148FFF70DFD044620A16846FFF7D4FCB0
:100860001CA10020FFF704FD074639466846FFF744
:10087000CBFC1FA16846FFF7C7FC16A10020FFF7BD
:10088000F7FC074639466846FFF7BEFC19A16846E3
:10089000FFF7BAFC684601F0F9FA0EA10020FFF755
:1008A000E7FC05460BA10020FFF7E2FC044609A186
:1008B0000020FFF7DDFC074601F013FD86B232464B
:1008C00021462846FFF762FE02200B49087019B046
:1008D000F0BD00002C0000003000002041542B43EC
:1008E000495053544152543D22544350222C22002B
:1008F000222C00000D0A00000A0000202DE9FF470D
:1009000004460D461646994600200390029600279D
:100910008046009002A801F02BFE8DF80C00039891
:10092000C0F30310022800D01FE001A9029800F0D4
:10093000A1F88046029908440290DDE901104718A9
:100940000298381A022800DA0FE002A801F010FE1F
:100950008DF80000009800F00100207002A801F05E
:1009600007FE28704FF0010800BF404604B0BDE804
:10097000F0872DE9FF5F06460C4617469846DDE9ED
:100980000FABDDF8389000200390119802900025FD
:1009900000200190009002A801F0EAFD8DF80C0003
:1009A0000398C0F30310032800D032E00398C0F38B
:1009B000C00030700398C0F341002060039800F03D
:1009C000010038706946029800F054F801900299CD
:1009D000084402900099029845182A4602A9484600
:1009E00001F0DAFD10B10298281A00D511E0206854
:1009F000002804DD02A801F0C2FDA8F8000002985A
:100A0000281ACBF800000298CAF8000001200190D3
:100A100000BF019804B0BDE8F09F2DE9F8430546FA
:100A20000C46012600270020206000BF4FF0FF3851
:100A3000781C0746042801DD00BF17E00121684645
:100A4000A8478046B8F1010F00D00FE09DF80010D4
:100A500001F07F01206801FB06002060F6019DF88F
:100A6000000000F080000028E0D100BF3846BDE85B
:100A7000F883000070B504460D460348046029461B
:100A80000248FFF7CAFF70BD200000203123000894
:100A900030B50246002300BF0846CD1701EB55656F
:100AA000ED11A1EBC515ECB2CD1701EB5565E911C0
:100AB000002901DD44F0800418465B1C1454002911
:100AC000EADC184630BD0000401C802801DA401CDA
:100AD0000AE0B0F5804F01DA801C05E00349884246
:100AE00001DAC01C00E0001D70470000FFFF1F007E
:100AF0002DE9FE4305460E4614460295002001905E
:100B0000009000274FF0FF38204600F0A3F807467A
:100B10008146FFF7D9FFB04203DD6FF00100BDE869
:100B2000FE8300208DF80400019820F0F0001030C2
:100B300001909DF8041002A801F065FD3946029865
:100B4000FFF7A6FF029908440290207A042808D1F2
:100B50003CA102A801F043FD042102A801F053FDCD
:100B600007E03AA102A801F03AFD032102A801F032
:100B70004AFD00208DF80000A17E009861F341003D
:100B80000090E07E08B1012100E00021009861F3AF
:100B9000820000900098C0F3800058B194F83D1096
:100BA000009861F3C400009094F83C10009861F341
:100BB00045100090206C08B9A06C20B1009820F07E
:100BC000800080300090E06C08B9606D20B1009822
:100BD00020F04000403000909DF8001002A801F085
:100BE00012FD218B02A801F014FD02A8D4E9042310
:100BF000E16801F026FDE07E58B102A8D4E90A239D
:100C0000616A01F01EFD02A8D4E90D23216B01F0F9
:100C100018FD0098C0F3C01028B102A8D4E9112330
:100C2000216C01F00EFD0098C0F3801028B102A8DD
:100C3000D4E91423E16C01F004FD0298A0EB05084F
:100C400040466CE74D515454000000004D5149732B
:100C50006470000070B504460025207A032801D195
:100C60000C2503E0207A042800D10A25D4E90412D7
:100C7000E06800F06AF9801C0544E07E68B1D4E9C0
:100C80000A12606A00F061F9861CD4E90D12206B2B
:100C900000F05BF93044801C0544206C08B9A06C5E
:100CA00030B1D4E91112206C00F04FF9801C0544DA
:100CB000E06C08B9606D30B1D4E91412E06C00F05A
:100CC00044F9801C0544284670BD2DE9F04F87B0DB
:100CD00005460F4690461C46DDE915B6DDE9109A3B
:100CE000069500200590049003900096204612A9D6
:100CF0000EC900F040F804900290FFF7E5FEB842FC
:100D000004DD6FF0010007B0BDE8F08F059820F01A
:100D1000F00030300590059868F3C3000590059801
:100D200064F342000590059869F3000005909DF872
:100D3000141006A801F067FC04990698FFF7A8FEB6
:100D400006990844069006A812A90EC901F079FC7C
:100D5000002C03DD514606A801F05BFC32465946E3
:100D60000698FFF72DFA0698304406900698401B27
:100D700003900398C7E77FB50546089E002401A8A5
:100D800007C800F0E2F8801C30440444002D00DD68
:100D9000A41C204604B070BD2DE9FF5F05460E4639
:100DA00017469846DDE90E9A0395002002900190BF
:100DB000009000245146484600F046F883460190D2
:100DC000FFF782FEB04202DDA01E009038E0002056
:100DD0008DF80800029820F0F00080300290029810
:100DE00067F3C3000290029820F00600801C029076
:100DF0009DF8081003A801F006FC01990398FFF77D
:100E000047FE039908440390414603A801F001FC02
:100E100000240FE004EB44000AEB800C03A89CE8DC
:100E20000E0001F00EFC109810F8241003A801F039
:100E3000EAFB641C4C45EDDB0398401B009000BFAF
:100E4000009804B0BDE8F09F2DE9F04105460E463C
:100E5000022700240AE004EB440006EB800393E839
:100E6000070000F072F8C01C0744641CAC42F2DBBF
:100E70003846BDE8F0812DE9FF5F04460E4617466F
:100E80009846DDE90E9A0394002002900190401EDE
:100E9000009000255146484600F040F883460190F6
:100EA000FFF712FEB04202DDA81E009032E00020E3
:100EB0008DF80800029820F0F000A030029002980F
:100EC00067F3C3000290029820F00600801C029095
:100ED0009DF8081003A801F096FB01990398FFF70D
:100EE000D7FD039908440390414603A801F091FB04
:100EF000002509E005EB45000AEB800C03A89CE8FF
:100F00000E0001F09EFB6D1C4D45F3DB0398001BAA
:100F1000009000BF009804B0BDE8F09F2DE9F041BB
:100F200005460E46022700240AE004EB440006EBC7
:100F3000800393E8070000F008F8801C0744641C55
:100F4000AC42F2DB3846BDE8F08137B500240098AA
:100F500020B10098FFF776F9044600E0019C204696
:100F60003EBD00BFFEE700002DE9F041002715A1BE
:100F70001548FFF77DF9074612A10020FFF778F921
:100F8000804601F0AEF904460EA10020FFF770F98B
:100F9000804601F0A6F905460AA10020FFF768F98E
:100FA000074608A10020FFF763F9804601F099F990
:100FB00006463B4632462946204600F0ABF9BDE8DE
:100FC000F08100002C00000030000020704700007D
:100FD00070B5002100230F22C4781CB3174C24687D
:100FE00004F4E064C4F5E064C4F30721C1F104042F
:100FF000E3B20A4144789C40E1B284781440214332
:101000000C07210E0E4C05786155047804F01F057D
:101010000124AC4005786D11AD0005F1E025C5F85F
:10102000004109E0047804F01F050124AC40054D9F
:101030000678761145F8264070BD00000CED00E002
:1010400000E400E080E100E0704700002DE9F04B93
:10105000EEB005460E4600270024A046A1461A48D9
:10106000B0F800B00088401C1749088017A007900E
:10107000B6F90030B5F900201DA10AA801F02CF83E
:101080000AA8FFF7DFF807460AA8CDE9050707A871
:1010900007C84B46CDE900ABCDE9031202904246AA
:1010A000C8213CA8FFF711FE0446002C00DB1CB948
:1010B0001EA001F001F803E021463CA800F0A2FDCB
:1010C0006EB0BDE8F08B000026000020246261694C
:1010D00064752F696F742F736861646F772F455340
:1010E00050383236362F7570646174650000000028
:1010F0007B2264657369726564223A7B7D2C22725F
:1011000065706F72746564223A7B2254656D7065F8
:10111000726174757265223A25642C2248756D6976
:1011200064697479223A25647D7D00004D515454E0
:10113000205075626C697368206D657373616765B3
:10114000206572726F72200D0A00000010B5A6B003
:10115000642107A8FFF74DF84FF4FA700F4921AA50
:1011600025ABCDE90132CDE9031005A820AB23AAB8
:1011700022A9009024A8FFF7FCFB044644B107A96C
:1011800007A000F099FF09A0259900F095FF02E063
:101190000AA000F091FF26B010BD0000C60000209C
:1011A000546F706963A3BA25730D0A004D6573739C
:1011B000616765A3BA25730D0A0D0A00BDE2CEF67C
:1011C000CAFDBEDDB3F6B4ED0000000029B1064A49
:1011D00012680243044B1A6004E0034A1268824317
:1011E000014B1A60704700003038024029B1064AAE
:1011F00012680243044B1A6004E0034A12688243F7
:10120000014B1A60704700004038024029B1064A7D
:1012100012680243044B1A6004E0034A12688243D6
:10122000014B1A607047000044380240F0B50021BD
:1012300000220024022500260223324F3F6807F0D7
:101240000C0121B1042905D0082937D105E02E4F22
:10125000076036E02D4F076033E02A4F3F1F3F689D
:10126000C7F38056274F3F1F3F6807F03F036EB11B
:10127000264FB7FBF3F7DFF88CC0ACF1040CDCF8B9
:1012800000C0CCF3881C07FB0CF40CE01E4FB7FB2E
:10129000F3F7DFF870C0ACF1040CDCF800C0CCF35D
:1012A000881C07FB0CF4174F3F1F3F68C7F301472B
:1012B0007F1C7D00B4FBF5F7076002E0124F07606A
:1012C00000BF00BF0F4F3F6807F0F0010909104F42
:1012D0007A5C0768D74047600A4F3F6807F4E051DF
:1012E000890A0B4F7A5C4768D7408760054F3F6893
:1012F00007F46041490B064F7A5C4768D740C760E6
:10130000F0BD0000083802400024F40000127A000A
:1013100010000020F0B587B004460D4616461F4663
:1013200001210846FFF752FF01214020FFF74EFF41
:1013300001214804FFF75AFF072202215048FFF716
:10134000E6F9072203214E48FFF7E1F90C2005904A
:1013500002208DF8180003208DF8190000208DF868
:101360001A0001208DF81B0005A94548FFF787F9F1
:101370004FF48070059001208DF8180003208DF83F
:10138000190000208DF81A0001208DF81B0005A916
:101390003C48FFF774F90194082D06D0092D08D1B7
:1013A0004FF48050ADF8080007E00020ADF80800C9
:1013B00003E00020ADF8080000BF00BF012E02D0FE
:1013C000022E09D103E00020ADF80A0008E04FF436
:1013D0000050ADF80A0003E00020ADF80A0000BF9D
:1013E00000BF29A13846FEF734FF10B90020ADF840
:1013F0000C0026A13846FEF72CFF18B94FF4C06048
:10140000ADF80C0023A13846FEF723FF18B94FF4BE
:101410008060ADF80C000020ADF810000C20ADF895
:101420000E0001A91D4800F07BFC01211B4800F0C3
:101430000EFC4021194800F001FC012240F2255128
:10144000164800F047FC012240F22441134800F006
:1014500041FC26208DF8000003208DF801000220B9
:101460008DF8020001208DF803006846FFF7B0FDFB
:1014700000200B4908600BA000F01EFE07B0F0BD75
:101480000000024000180240CEDE0000C6E6D0A3F5
:10149000D1E90000C5BCD0A3D1E900000044004060
:1014A000A0024342525334383520436F6E66696759
:1014B0002046696E6973680D0A0000000120034927
:1014C00008700020024908607047000028000020D2
:1014D0000400002010B58EB000244FF4FA73164AB1
:1014E000694601A8FFF70AFA04469DF8000070B9A2
:1014F0000120124908704FF4FA710F48FEF779FE87
:1015000000200F4908600FA000F0D6FD12E0002077
:101510000A4908704FF4FA710748FEF76AFE002086
:10152000074908600FA000F0C7FD9DF8001014A047
:1015300000F0C2FD0EB010BDC60000202400002047
:1015400004000020636F6E6E656374206D717474A7
:101550002073657276657220737563636573730DAE
:101560000A000000636F6E6E656374206D717474A1
:1015700020736572766572206572726F720D0A0053
:101580006572726F7220636F6465A3BA25640D0A79
:1015900000000000704700000CB500200190009092
:1015A0003448006840F480303249086000BF314858
:1015B000006800F4003000900198401C01900098F1
:1015C00018B90198B0F5A04FF1D12A48006800F48D
:1015D000003010B10120009001E000200090009840
:1015E000012846D123484030006840F0805021490E
:1015F000403108602048006840F440401E490860BF
:101600001C48083000681B4908310860084600681B
:1016100040F4004008600846006840F4A0500860AC
:101620001648091F0860081F006840F08070091FF5
:10163000086000BF0F48006800F000700028F9D073
:1016400040F205700E4908600A480830006820F032
:1016500003000849083108600846006840F00200AD
:10166000086000BF03480830006800F00C0008283C
:10167000F8D10CBD0038024000700040085440070B
:10168000003C0240F0B5B9B00446C82107A8FEF7F7
:10169000B0FD0025002006903026124807880088FB
:1016A000401C104908800594039403A807C8FFF75D
:1016B0004CFC049006A803A901223B46CDE9002179
:1016C00002903246C82107A8FFF766FB05461DB900
:1016D00005A000F0F1FC03E0294607A800F092FA0B
:1016E00039B0F0BD260000204D515454207375626E
:1016F000736372696265206D6573736167652065E8
:1017000072726F72200D0A00042808D14FF0E02198
:10171000096941F004014FF0E022116107E04FF048
:10172000E021096921F004014FF0E02211617047C6
:101730007047000010B51548006840F47000134968
:1017400008601348006840F001001149086000205B
:101750000F49083108600E4800680E4908400C49DE
:1017600008600D48091D0860081F006820F48020EB
:10177000091F0860002006490C310860FFF70CFFC4
:101780004FF0006001498039086010BD88ED00E02D
:1017900000380240FFFFF6FE1030002470B540F222
:1017A0002551354800F06CFAD8B1334800F022FBDF
:1017B000C4B2324832490988445431480088401C38
:1017C0002F49088008460088962805DD2DA000F0E6
:1017D00073FC00202A49088040F22551264800F079
:1017E0002DFA40F22441244800F04AFA002842D061
:1017F00021480088C5B220488088C5B229A11F4869
:10180000FEF70EFD30B101202849087000201C4968
:10181000088030E026A11948FEF702FD30B1022011
:101820002249087000201649088024E021A11348AD
:10183000FEF7F6FC48B103201C490870002010494F
:10184000088020A000F038FC15E022A10B48FEF72C
:10185000E7FC48B1042015490870002008490880B9
:101860001FA000F029FC06E0002005490880962111
:101870000248FEF7BEFC70BD0010014030000020A1
:10188000080000206572726F723A4D65737361676C
:1018900065206C656E67746820746F6F206C6F6E66
:1018A000670D0A005355423A000000000B0000206B
:1018B000554E3A004D6F64427573436F6E666967AB
:1018C000000000004D6F64427573436F6E66696778
:1018D0000D0A00004D515454436F6E666967000055
:1018E0004D515454436F6E6669670D0A0000000045
:1018F00010B588B0044601210846FFF767FC0121B6
:101900001020FFF783FC072209212748FEF7FFFE7E
:1019100007220A212448FEF7FAFE4FF4C060069021
:1019200002208DF81C008DF81D0000208DF81E008F
:1019300001208DF81F0006A91B48FEF7A0FE0294A7
:101940000020ADF80C00ADF80E00ADF81000ADF8B9
:1019500014000C20ADF8120002A9144800F0E0F9C0
:101960000121124800F073F94021104800F066F997
:10197000012240F225510D4800F0ACF9012240F25D
:1019800024410A4800F0A6F925208DF80400032020
:101990008DF8050001208DF806008DF8070001A8DC
:1019A000FFF716FB08B010BD000002400010014018
:1019B00010B5002440F22551144800F061F980B1BF
:1019C00040F22551114800F039F9104800F012FAA0
:1019D000C4B20F4801780078401C0D4A10700D48C1
:1019E000445440F22441094800F04AF968B10749DB
:1019F0000988C8B20549091D0988C8B20121064AEB
:101A000011700021024A117000BF10BD0044004057
:101A100029000020BA0200202A00002070B540F200
:101A200025513A4800F02CF9C0B1384800F0E2F9ED
:101A3000C4B2374837490968445436480068401CE6
:101A40003449086008460068B0F57A7F01DB002061
:101A5000086040F225512D4800F0F0F840F2244192
:101A60002A4800F00DF900284FD028480088C5B258
:101A70002648001D0088C5B22748007808B9FFF73E
:101A80001DFD25480078012801D1FFF723FD2248DC
:101A90000078022839D11E480078D02807D14FF4A9
:101AA000FA711B48FEF7A5FB00201A490860184888
:101AB000007890280AD119A000F0FEFA4FF4FA71CC
:101AC0001348FEF796FB0020124908601048007882
:101AD00000F0F000302809D1FFF738FB4FF4FA711D
:101AE0000B48FEF786FB00200A490860084800788A
:101AF000B0280AD10EA000F0DFFA4FF4FA710448C2
:101B0000FEF777FB00200349086070BD00480040E5
:101B1000C6000020040000200A000020D6F7CCE216
:101B2000B6A9D4C4C8B7C8CF0D0A0D0A000000007A
:101B3000D6F7CCE2CDCBB6A9B3C9B9A60D0A0D0A2A
:101B40000000000010B588B0044601210220FFF714
:101B50003DFB01218804FFF749FB07220A212748A2
:101B6000FEF7D5FD07220B212448FEF7D0FD4FF4E8
:101B70004060069002208DF81C008DF81D000020AA
:101B80008DF81E0001208DF81F0006A91B48FEF7E6
:101B900076FD02940020ADF80C00ADF80E00ADF813
:101BA0001000ADF814000C20ADF8120002A9144882
:101BB00000F0B6F80121124800F049F84021104821
:101BC00000F03CF8012240F225510D4800F082F867
:101BD000012240F224410A4800F07CF827208DF8C9
:101BE000040003208DF805008DF8060001208DF813
:101BF000070001A8FFF7ECF908B010BD000402408F
:101C00000048004070B504460D4640210A4800F0E7
:101C100015F800260CE02178074800F0F0F800BF26
:101C20004021054800F01FF80128F9D1641C761CFA
:101C3000AE42F0DB70BD00000048004001F40072CD
:101C4000B2F5007F00D100BFCA430280704721B1C6
:101C5000828942F40052828104E082894DF6FF734A
:101C60001A408281704702460020B1F5007F00D102
:101C700000BF13880B400BB1012000E0002070472B
:101C800070B50246002400230025002040F66A16A5
:101C9000B14200D100BFC1F3421501F01F0301267C
:101CA00006FA03F3012D02D19689334006E0022D96
:101CB00002D1168A334001E0968A33400C12012685
:101CC00006FA04F41688344013B10CB1012000E088
:101CD000002070BDF0B5034600240026002500203A
:101CE00040F66A17B94200D100BF1846C1F342144A
:101CF00001F01F06012707FA06F5012C01D10C306F
:101D000004E0022C01D1103000E014301AB1076851
:101D10002F43076002E00768AF430760F0BD000093
:101D20002DE9FF4705460E460024A14600BFA04608
:101D3000B08900B100BF2C8A24F44054F0880443D9
:101D40002C82AC8941F20C608443B088318908430D
:101D5000718908430443AC81AC8A24F44074B0898F
:101D60000443AC826846FFF761FA2048854202D0FE
:101D70001F48854202D1DDF80C9001E0DDF80890A3
:101D8000A88900F4004040B109EBC90000EB09103C
:101D900031684900B0FBF1F707E009EBC90000EB3F
:101DA000091031688900B0FBF1F76420B7FBF0F04F
:101DB00004012009642101FB1078A88900F4004087
:101DC00040B1322000EBC800B0FBF1F000F007009A
:101DD000044308E0322000EB08106421B0FBF1F06E
:101DE00000F00F0004432C81BDE8FF870010014084
:101DF0000014014001468888C0F308007047C1F311
:101E00000802828070470000F0B5B7B00446002594
:101E1000C82105A8FEF7EDF930261148078800888B
:101E2000401C0F4908800494029402A807C8FFF7D9
:101E30008CF8039002A801213B463246CDE9001000
:101E4000C82105A8FFF717F805461DB905A000F041
:101E500033F903E0294605A8FFF7D4FE37B0F0BDFB
:101E6000260000204D51545420556E7375627363E3
:101E700072696265206D6573736167652065727252
:101E80006F72200D0A00000000BFFEE770B5054626
:101E90000024002019490870032119A0FFF7B2FEA1
:101EA000642000F077FA17A117A000F06FF8044340
:101EB0004FF4FA7000F06EFA12A116A000F066F866
:101EC000044310A117A000F061F804430DA12846B7
:101ED00000F05CF804430BA11AA000F057F804438B
:101EE00008A11CA000F052F804431CB11DA000F092
:101EF000E3F802E020A000F0DFF870BD0A00002047
:101F00002B2B2B004F4B000041542B5253540D0AE6
:101F10000000000041542B43574D4F44453D310DC7
:101F20000A00000041542B43574A41503D224D497D
:101F300036222C227732353835363531323432225A
:101F40000D0A000041542B4349504D4F44453D314B
:101F50000D0A000041542B43495053454E440D0A8D
:101F6000000000005749464920B3F5CABCBBAFB4D6
:101F7000EDCEF30D0A0000005749464920B3F5CADB
:101F8000BCBBAFCDEAB3C90D0A0000002DE9F0419A
:101F900004460E4600254FF4FA711C48FEF729F955
:101FA00000201B4908601B4908702046FEF74AF9CB
:101FB000074639462046FFF725FE25E013E06D1C55
:101FC000012000F0E7F941F6583085420BDB4FF471
:101FD000FA710E48FEF70DF921460FA000F06CF8DB
:101FE0000120BDE8F0810B4800780028E7D00025EB
:101FF00031460648FEF714F930B14FF4FA71034840
:10200000FEF7F7F80020ECE7D8E70000C600002054
:1020100004000020280000202573206572726F7272
:102020000D0A00002DE9FC470746884614461D4668
:102030000020009001900026814682468DF80070B5
:102040008DF80180200A8DF80200E0B28DF80300BF
:10205000280A8DF80400E8B28DF8050006216846CC
:10206000FEF76DFA81464FEA19208DF8060009F057
:10207000FF008DF8070001200D49086040210D4840
:10208000FFF7DCFD00BF0CE01DF806100948FFF764
:10209000B6FE00BF40210748FFF7E5FD0028F9D054
:1020A000761C082EF0D3002001490860BDE8FC87AB
:1020B000A0024342004400400FB4054B10B503A9F1
:1020C000044A029800F02CF810BC5DF814FB0000E4
:1020D000192400080C0000200FB4084B10B504A907
:1020E00002AA039800F01CF8044602A9002000F0A0
:1020F000F3F8204610BC5DF814FB0000D92200085C
:1021000002E008C8121F08C1002AFAD170477047C0
:10211000002001E001C1121F002AFBD1704700001E
:102120002DE9FF4F8BB09A460F460546002606E084
:1021300025280BD052460D9990476D1C761C2878A7
:102140000028F5D10FB03046BDE8F08F0024A0463E
:102150000122604900E0044315F8013F203B02FAE8
:1021600003F00842F7D128782E2817D115F8010F6F
:1021700044F004042A280ED06FF02F022878A0F132
:10218000300109290AD808EB880102EB410100EB74
:1021900001086D1CF2E757F8048B6D1C287869283C
:1021A0003ED006DC0028CDD063280BD0642804D1B3
:1021B00036E0732810D075284BD052460D999047C1
:1021C000761C85E017F8040B8DF8000000208DF8D0
:1021D0000100E946012003E057F8049B4FF0FF306F
:1021E00061074FF0000401D40AE0641C44450DDA95
:1021F0008442FADB19F804100029F6D106E0641CC9
:102200008442FCDB19F804100029F8D1264404E0CC
:1022100019F8010B52460D999047641EF8D257E009
:1022200001CF4FF00A0B002802DA40422D2102E0D4
:10223000210504D52B218DF82410012103E0E107AD
:1022400005D02021F7E70DF1200908910CE00021CD
:10225000F9E701CF4FF00A0BF9E75946FEF7C9F845
:1022600001F1300209F8012D0028F6D1ADEB09008B
:1022700000F1200B600701D44FF00108D84502DDC2
:10228000A8EB0B0000E000208046002406E009A82F
:102290005246005D0D999047641C761C0898844254
:1022A000F5DB04E0302052460D999047761CB8F1DA
:1022B0000001A8F10108F5DC05E019F8010B524610
:1022C0000D999047761CBBF10001ABF1010BF4DCDA
:1022D0006D1C34E7092801000A68531C0B6010705C
:1022E000704730B5024600E0521C107800F0ABF8A1
:1022F0000028F9D112F8013B1D462D2B01D02B2BC4
:1023000001D112F8013B002406E0A3F130000A21BC
:1023100004FB010412F8013B184600F08BF800287A
:10232000F3D12D2D01D1604230BD2046FCE70000E5
:1023300010B50246002309E00648006800781070D6
:1023400004480068401C034C20605B1C8B42F3DB9C
:10235000084610BD2000002010B504466FF00400B0
:10236000FFF7D2F9E11704EB5171C1F3C701074A36
:1023700011701046007800EB4001C1EBC0104FF621
:10238000FF7101EAC0000249088010BD0000002072
:102390000200002070B504464FF4077094FBF0F083
:1023A000C6B24FF4077094FBF0F100FB114085B208
:1023B00005E04FF4077000F009F8701EC6B2002E59
:1023C000F7D115B1284600F001F870BD0146114A59
:1023D00012884A434FF0E0235A6100229A611A465C
:1023E000126942F001021A6100BF4FF0E022106949
:1023F00000F001021AB100F48032002AF5D04FF04B
:10240000E022126922F001024FF0E0231A6100225B
:102410009A6170470200002000BF054A128802F04E
:102420004002002AF9D0C2B2014B9A8070470000E6
:10243000001001400146392903DC302901DB01206D
:1024400070470020FCE70146202909D0092907D060
:102450000A2905D00C2903D0082901D00D2901D162
:10246000012070470020FCE71CB50020019000907F
:102470000024A820FFF770FFFEF7C0F94FF4E13009
:10248000FFF736FA4FF4E130FFF75CFB64E03348C6
:10249000007803280AD1002030490870FEF764FD57
:1024A00064212F48FDF7A5FE601CC4B22B480078BC
:1024B00004280AD1002029490870FEF7BFF96421D9
:1024C0002748FDF796FE601CC4B2022C38D10223C7
:1024D000002203210120FFF7A5FD204800780128F4
:1024E0000AD100201D4908701D48001DFFF7CAF8D9
:1024F00064211B48FDF77DFE1848007802280AD1A8
:102500000020164908701648C01CFFF77DFC6421A6
:102510001348FDF76EFE1348007888B16A4601A99A
:102520001148FEF719F958B10F48002101604160C8
:10253000017200200B490870694601A8FEF786FD6C
:102540004FF47A70FFF726FF0848006808B90120A9
:1025500000E000200549086099E700000B0000201A
:10256000300000202A000020BA020020A48242424B
:1025700001460A6810780A68521C0A60704730B534
:1025800001460A68537814784FF4807515FB0430BF
:102590000B689B1C0B6030BD2DE9F04104460D46D5
:1025A000164600272868301A012813DD2846FFF751
:1025B000E6FF6060286861680844B0420AD8626833
:1025C00004F108002968FDF7FBFD286861680844EC
:1025D00028600127002020603846BDE8F08170B5F2
:1025E00004460E463046FDF72DFE05462946204698
:1025F00000F00FF82A4631462068FDF7E1FD20681B
:102600002844206070BD026811700268521C02608C
:10261000704710B50A46CB1701EB13631B0A046819
:1026200023700268521C02600A46CB1701EB136349
:102630001B12A1EB0323046823700268521C026082
:1026400010BD1FB50446029800280DDD20460299F2
:10265000FFF7DFFFDDE902212068FDF7B1FD20680B
:102660000299084420600AE0019820B120460199AF
:10267000FFF7B5FF03E000212046FFF7CAFF1FBDAB
:10268000A026000800000020300000000021000803
:10269000D026000830000020980600001021000815
:1026A000000000000000000000000000000000002A
:1026B00000000000010203040102030406070809E8
:1026C0000000000000000100000000000000000009
:040000050800018965
:00000001FF
